{
    "address": "0xe7f1725E7734CE288F8367e1Bb143E90bb3F0512",
    "abi": [
        {
            "inputs": [
                {
                    "internalType": "address",
                    "name": "priceFeed",
                    "type": "address"
                }
            ],
            "stateMutability": "nonpayable",
            "type": "constructor"
        },
        {
            "inputs": [],
            "name": "FundMe__NotOwner",
            "type": "error"
        },
        {
            "inputs": [],
            "name": "MINIMUM_USD",
            "outputs": [
                {
                    "internalType": "uint256",
                    "name": "",
                    "type": "uint256"
                }
            ],
            "stateMutability": "view",
            "type": "function"
        },
        {
            "inputs": [],
            "name": "cheaperWithdraw",
            "outputs": [],
            "stateMutability": "nonpayable",
            "type": "function"
        },
        {
            "inputs": [],
            "name": "fund",
            "outputs": [],
            "stateMutability": "payable",
            "type": "function"
        },
        {
            "inputs": [
                {
                    "internalType": "address",
                    "name": "fundingAddress",
                    "type": "address"
                }
            ],
            "name": "getAddressToAmountFunded",
            "outputs": [
                {
                    "internalType": "uint256",
                    "name": "",
                    "type": "uint256"
                }
            ],
            "stateMutability": "view",
            "type": "function"
        },
        {
            "inputs": [
                {
                    "internalType": "uint256",
                    "name": "index",
                    "type": "uint256"
                }
            ],
            "name": "getFunder",
            "outputs": [
                {
                    "internalType": "address",
                    "name": "",
                    "type": "address"
                }
            ],
            "stateMutability": "view",
            "type": "function"
        },
        {
            "inputs": [],
            "name": "getOwner",
            "outputs": [
                {
                    "internalType": "address",
                    "name": "",
                    "type": "address"
                }
            ],
            "stateMutability": "view",
            "type": "function"
        },
        {
            "inputs": [],
            "name": "getPriceFeed",
            "outputs": [
                {
                    "internalType": "contract AggregatorV3Interface",
                    "name": "",
                    "type": "address"
                }
            ],
            "stateMutability": "view",
            "type": "function"
        },
        {
            "inputs": [],
            "name": "getVersion",
            "outputs": [
                {
                    "internalType": "uint256",
                    "name": "",
                    "type": "uint256"
                }
            ],
            "stateMutability": "view",
            "type": "function"
        },
        {
            "inputs": [
                {
                    "internalType": "address",
                    "name": "",
                    "type": "address"
                }
            ],
            "name": "s_addressToAmountFunded",
            "outputs": [
                {
                    "internalType": "uint256",
                    "name": "",
                    "type": "uint256"
                }
            ],
            "stateMutability": "view",
            "type": "function"
        },
        {
            "inputs": [],
            "name": "withdraw",
            "outputs": [],
            "stateMutability": "nonpayable",
            "type": "function"
        }
    ],
    "transactionHash": "0xe4887e73e6d56924ef5cc45d28b798bdc80a4648d58d377aaa06270200e63b23",
    "args": [
        "0x5FbDB2315678afecb367f032d93F642f64180aa3"
    ],
    "numDeployments": 1,
    "solcInputHash": "8ae252205dd62a5244b83fa6ad908907",
    "bytecode": "0x60a06040523480156200001157600080fd5b50604051620013b7380380620013b783398181016040528101906200003791906200011d565b3373ffffffffffffffffffffffffffffffffffffffff1660808173ffffffffffffffffffffffffffffffffffffffff168152505080600260006101000a81548173ffffffffffffffffffffffffffffffffffffffff021916908373ffffffffffffffffffffffffffffffffffffffff160217905550506200014f565b600080fd5b600073ffffffffffffffffffffffffffffffffffffffff82169050919050565b6000620000e582620000b8565b9050919050565b620000f781620000d8565b81146200010357600080fd5b50565b6000815190506200011781620000ec565b92915050565b600060208284031215620001365762000135620000b3565b5b6000620001468482850162000106565b91505092915050565b608051611230620001876000396000818161033b015281816104ce0152818161056c015281816106ee01526108e401526112306000f3fe6080604052600436106100915760003560e01c8063893d20e811610059578063893d20e81461017d5780639e87a5cd146101a8578063b60d4288146101d3578063be2693f0146101dd578063d7b4750c146101f457610091565b80630343fb25146100965780630d8e6e2c146100d35780631bf6132d146100fe5780633ccfd60b1461013b5780636b69a59214610152575b600080fd5b3480156100a257600080fd5b506100bd60048036038101906100b89190610ba7565b610231565b6040516100ca9190610bed565b60405180910390f35b3480156100df57600080fd5b506100e861027a565b6040516100f59190610bed565b60405180910390f35b34801561010a57600080fd5b5061012560048036038101906101209190610ba7565b610321565b6040516101329190610bed565b60405180910390f35b34801561014757600080fd5b50610150610339565b005b34801561015e57600080fd5b50610167610563565b6040516101749190610bed565b60405180910390f35b34801561018957600080fd5b50610192610568565b60405161019f9190610c17565b60405180910390f35b3480156101b457600080fd5b506101bd610590565b6040516101ca9190610c91565b60405180910390f35b6101db6105ba565b005b3480156101e957600080fd5b506101f26106ec565b005b34801561020057600080fd5b5061021b60048036038101906102169190610cd8565b61097a565b6040516102289190610c17565b60405180910390f35b6000600160008373ffffffffffffffffffffffffffffffffffffffff1673ffffffffffffffffffffffffffffffffffffffff168152602001908152602001600020549050919050565b6000600260009054906101000a900473ffffffffffffffffffffffffffffffffffffffff1673ffffffffffffffffffffffffffffffffffffffff166354fd4d506040518163ffffffff1660e01b815260040160206040518083038186803b1580156102e457600080fd5b505afa1580156102f8573d6000803e3d6000fd5b505050506040513d601f19601f8201168201806040525081019061031c9190610d1a565b905090565b60016020528060005260406000206000915090505481565b7f000000000000000000000000000000000000000000000000000000000000000073ffffffffffffffffffffffffffffffffffffffff163373ffffffffffffffffffffffffffffffffffffffff16146103be576040517f579610db00000000000000000000000000000000000000000000000000000000815260040160405180910390fd5b60005b6000805490508110156104695760008082815481106103e3576103e2610d47565b5b9060005260206000200160009054906101000a900473ffffffffffffffffffffffffffffffffffffffff1690506000600160008373ffffffffffffffffffffffffffffffffffffffff1673ffffffffffffffffffffffffffffffffffffffff1681526020019081526020016000208190555050808061046190610da5565b9150506103c1565b50600067ffffffffffffffff81111561048557610484610dee565b5b6040519080825280602002602001820160405280156104b35781602001602082028036833780820191505090505b50600090805190602001906104c9929190610a9d565b5060007f000000000000000000000000000000000000000000000000000000000000000073ffffffffffffffffffffffffffffffffffffffff164760405161051090610e4e565b60006040518083038185875af1925050503d806000811461054d576040519150601f19603f3d011682016040523d82523d6000602084013e610552565b606091505b505090508061056057600080fd5b50565b603281565b60007f0000000000000000000000000000000000000000000000000000000000000000905090565b6000600260009054906101000a900473ffffffffffffffffffffffffffffffffffffffff16905090565b60326105f1600260009054906101000a900473ffffffffffffffffffffffffffffffffffffffff16346109c190919063ffffffff16565b11610631576040517f08c379a000000000000000000000000000000000000000000000000000000000815260040161062890610ec0565b60405180910390fd5b6000339080600181540180825580915050600190039060005260206000200160009091909190916101000a81548173ffffffffffffffffffffffffffffffffffffffff021916908373ffffffffffffffffffffffffffffffffffffffff16021790555034600160003373ffffffffffffffffffffffffffffffffffffffff1673ffffffffffffffffffffffffffffffffffffffff16815260200190815260200160002060008282546106e39190610ee0565b92505081905550565b7f000000000000000000000000000000000000000000000000000000000000000073ffffffffffffffffffffffffffffffffffffffff163373ffffffffffffffffffffffffffffffffffffffff1614610771576040517f579610db00000000000000000000000000000000000000000000000000000000815260040160405180910390fd5b6000808054806020026020016040519081016040528092919081815260200182805480156107f457602002820191906000526020600020905b8160009054906101000a900473ffffffffffffffffffffffffffffffffffffffff1673ffffffffffffffffffffffffffffffffffffffff16815260200190600101908083116107aa575b5050505050905060005b815181101561087f57600082828151811061081c5761081b610d47565b5b602002602001015190506000600160008373ffffffffffffffffffffffffffffffffffffffff1673ffffffffffffffffffffffffffffffffffffffff1681526020019081526020016000208190555050808061087790610da5565b9150506107fe565b50600067ffffffffffffffff81111561089b5761089a610dee565b5b6040519080825280602002602001820160405280156108c95781602001602082028036833780820191505090505b50600090805190602001906108df929190610a9d565b5060007f000000000000000000000000000000000000000000000000000000000000000073ffffffffffffffffffffffffffffffffffffffff164760405161092690610e4e565b60006040518083038185875af1925050503d8060008114610963576040519150601f19603f3d011682016040523d82523d6000602084013e610968565b606091505b505090508061097657600080fd5b5050565b600080828154811061098f5761098e610d47565b5b9060005260206000200160009054906101000a900473ffffffffffffffffffffffffffffffffffffffff169050919050565b6000806109cd836109fd565b90506000670de0b6b3a764000085836109e69190610f36565b6109f09190610fbf565b9050809250505092915050565b6000808273ffffffffffffffffffffffffffffffffffffffff1663feaf968c6040518163ffffffff1660e01b815260040160a06040518083038186803b158015610a4657600080fd5b505afa158015610a5a573d6000803e3d6000fd5b505050506040513d601f19601f82011682018060405250810190610a7e9190611068565b5050509150506402540be40081610a9591906110e3565b915050919050565b828054828255906000526020600020908101928215610b16579160200282015b82811115610b155782518260006101000a81548173ffffffffffffffffffffffffffffffffffffffff021916908373ffffffffffffffffffffffffffffffffffffffff16021790555091602001919060010190610abd565b5b509050610b239190610b27565b5090565b5b80821115610b40576000816000905550600101610b28565b5090565b600080fd5b600073ffffffffffffffffffffffffffffffffffffffff82169050919050565b6000610b7482610b49565b9050919050565b610b8481610b69565b8114610b8f57600080fd5b50565b600081359050610ba181610b7b565b92915050565b600060208284031215610bbd57610bbc610b44565b5b6000610bcb84828501610b92565b91505092915050565b6000819050919050565b610be781610bd4565b82525050565b6000602082019050610c026000830184610bde565b92915050565b610c1181610b69565b82525050565b6000602082019050610c2c6000830184610c08565b92915050565b6000819050919050565b6000610c57610c52610c4d84610b49565b610c32565b610b49565b9050919050565b6000610c6982610c3c565b9050919050565b6000610c7b82610c5e565b9050919050565b610c8b81610c70565b82525050565b6000602082019050610ca66000830184610c82565b92915050565b610cb581610bd4565b8114610cc057600080fd5b50565b600081359050610cd281610cac565b92915050565b600060208284031215610cee57610ced610b44565b5b6000610cfc84828501610cc3565b91505092915050565b600081519050610d1481610cac565b92915050565b600060208284031215610d3057610d2f610b44565b5b6000610d3e84828501610d05565b91505092915050565b7f4e487b7100000000000000000000000000000000000000000000000000000000600052603260045260246000fd5b7f4e487b7100000000000000000000000000000000000000000000000000000000600052601160045260246000fd5b6000610db082610bd4565b91507fffffffffffffffffffffffffffffffffffffffffffffffffffffffffffffffff821415610de357610de2610d76565b5b600182019050919050565b7f4e487b7100000000000000000000000000000000000000000000000000000000600052604160045260246000fd5b600081905092915050565b50565b6000610e38600083610e1d565b9150610e4382610e28565b600082019050919050565b6000610e5982610e2b565b9150819050919050565b600082825260208201905092915050565b7f596f75206e65656420746f207370656e64206d6f726520455448210000000000600082015250565b6000610eaa601b83610e63565b9150610eb582610e74565b602082019050919050565b60006020820190508181036000830152610ed981610e9d565b9050919050565b6000610eeb82610bd4565b9150610ef683610bd4565b9250827fffffffffffffffffffffffffffffffffffffffffffffffffffffffffffffffff03821115610f2b57610f2a610d76565b5b828201905092915050565b6000610f4182610bd4565b9150610f4c83610bd4565b9250817fffffffffffffffffffffffffffffffffffffffffffffffffffffffffffffffff0483118215151615610f8557610f84610d76565b5b828202905092915050565b7f4e487b7100000000000000000000000000000000000000000000000000000000600052601260045260246000fd5b6000610fca82610bd4565b9150610fd583610bd4565b925082610fe557610fe4610f90565b5b828204905092915050565b600069ffffffffffffffffffff82169050919050565b61100f81610ff0565b811461101a57600080fd5b50565b60008151905061102c81611006565b92915050565b6000819050919050565b61104581611032565b811461105057600080fd5b50565b6000815190506110628161103c565b92915050565b600080600080600060a0868803121561108457611083610b44565b5b60006110928882890161101d565b95505060206110a388828901611053565b94505060406110b488828901610d05565b93505060606110c588828901610d05565b92505060806110d68882890161101d565b9150509295509295909350565b60006110ee82611032565b91506110f983611032565b9250827f7fffffffffffffffffffffffffffffffffffffffffffffffffffffffffffffff048211600084136000841316161561113857611137610d76565b5b817f8000000000000000000000000000000000000000000000000000000000000000058312600084126000841316161561117557611174610d76565b5b827f800000000000000000000000000000000000000000000000000000000000000005821260008413600084121616156111b2576111b1610d76565b5b827f7fffffffffffffffffffffffffffffffffffffffffffffffffffffffffffffff05821260008412600084121616156111ef576111ee610d76565b5b82820290509291505056fea26469706673582212206016fc2bf75881e3c17cd4d21ff36f0a04ff7b3cb45dd1f12d71fbcf8a62bc6464736f6c63430008090033",
    "devdoc": {
        "author": "Vivek Singh",
        "details": "This implements price feeds as our library",
        "kind": "dev",
        "methods": {},
        "title": "A contract for crowd funding",
        "version": 1
    },
    "userdoc": {
        "kind": "user",
        "methods": {},
        "notice": "This is to demo a sample funding contract",
        "version": 1
    },
    "storageLayout": {
        "storage": [
            {
                "astId": 67,
                "contract": "contracts/FundMe.sol:FundMe",
                "label": "s_funders",
                "offset": 0,
                "slot": "0",
                "type": "t_array(t_address)dyn_storage"
            },
            {
                "astId": 71,
                "contract": "contracts/FundMe.sol:FundMe",
                "label": "s_addressToAmountFunded",
                "offset": 0,
                "slot": "1",
                "type": "t_mapping(t_address,t_uint256)"
            },
            {
                "astId": 74,
                "contract": "contracts/FundMe.sol:FundMe",
                "label": "s_priceFeed",
                "offset": 0,
                "slot": "2",
                "type": "t_contract(AggregatorV3Interface)45"
            }
        ],
        "types": {
            "t_address": {
                "encoding": "inplace",
                "label": "address",
                "numberOfBytes": "20"
            },
            "t_array(t_address)dyn_storage": {
                "base": "t_address",
                "encoding": "dynamic_array",
                "label": "address[]",
                "numberOfBytes": "32"
            },
            "t_contract(AggregatorV3Interface)45": {
                "encoding": "inplace",
                "label": "contract AggregatorV3Interface",
                "numberOfBytes": "20"
            },
            "t_mapping(t_address,t_uint256)": {
                "encoding": "mapping",
                "key": "t_address",
                "label": "mapping(address => uint256)",
                "numberOfBytes": "32",
                "value": "t_uint256"
            },
            "t_uint256": {
                "encoding": "inplace",
                "label": "uint256",
                "numberOfBytes": "32"
            }
        }
    }
}